:100000000C9474030C94B8030C94D3030C94B803AD
:100010000C94B8030C94B8030C94B8030C94B80374
:100020000C94B8030C94B8030C945F1E0C94B803A2
:100030000C94B8030C94B8030C94B8030C94B80354
:100040000C94B8030C94B8030C94B8030C94B80344
:100050000C94B80300000000000000000000000045
:100060000000000000000000000000000000000090
:1000700000000000000000007E0F00D4FFFFFFC75B
:100080000000007800000000000000002A2B28007B
:100090000000000000000000000000000000002937
:1000A000000000002C1E3420212224342627252E77
:1000B000362D3738271E1F202122232425263333AF
:1000C000362E37381F0405060708090A0B0C0D0EDB
:1000D0000F101112131415161718191A1B1C1D2FA7
:1000E0003130232D350405060708090A0B0C0D0EC7
:1000F0000F101112131415161718191A1B1C1D2F87
:100100003130354C00047F3F1F6432146432147860
:100110003C1E1E140A05000101010101010101013B
:1001200002020202020202020203030303030303A8
:100130000304040404040404050505050506060675
:100140000606070707070708080808090909090A32
:100150000A0A0B0B0B0C0C0C0D0D0D0E0E0E0F0FD7
:100160000F10101111111212131314141515161665
:100170001717181819191A1A1B1B1C1D1D1E1E1FD4
:100180002020212222232424252626272829292A23
:100190002B2C2D2D2E2F303132323334353637384B
:1001A000393A3B3C3D3E3F40414243444546474847
:1001B000494A4C4D4E4F50515354555658595A5B1D
:1001C0005D5E5F616264656668696B6C6D6F7072BD
:1001D000737577787A7B7D7E8082838587888A8C29
:1001E0008E8F91939596989A9C9EA0A2A3A5A7A95D
:1001F000ABADAFB1B3B5B7BABCBEC0C2C4C6C9CB54
:10020000CDCFD1D4D6D8DBDDDFE2E4E7E9EBEEF009
:10021000F3F5F8FAFDFFFFAA7F5540222325262893
:10022000292A2C2D2F3032333536383A3B3D3E408B
:1002300042434547494A4C4E5051535557595A5CD1
:100240005E6062646668696B6D6F71737577797BE8
:100250007D7F81838587898A8C8E90929496989AE7
:100260009C9E9FA1A3A5A7A8AAACAEAFB1B3B4B6FC
:10027000B8B9BBBCBEBFC1C2C3C5C6C7C9CACBCC57
:10028000CDCED0D1D2D2D3D4D5D6D7D7D8D9D9DA2A
:10029000DADBDBDBDCDCDCDCDCDDDDDDDDDCDCDC9F
:1002A000DCDCDBDBDBDADAD9D9D8D7D7D6D5D4D3C7
:1002B000D2D2D1D0CECDCCCBCAC9C7C6C5C3C2C19C
:1002C000BFBEBCBBB9B8B6B4B3B1AFAEACAAA8A7F9
:1002D000A5A3A19F9E9C9A98969492908E8C8A89B1
:1002E000878583817F7D7B79777573716F6D6B698E
:1002F00068666462605E5C5A5957555351504E4C63
:100300004A4947454342403E3D3B3A383635333211
:10031000302F2D2C2A292826252322165C1E001F6B
:1003200000200021002200230024002500260027B1
:10033000002D002E002A0035002B0014001A0008A2
:1003400000150017001C0018000C00120013002FED
:1003500000300031004C003900040016000700098D
:10036000000A000B000D000E000F003300340000E7
:100370000028004B00E10001001D001B00060019D1
:1003800000050011001000360037003800E500526B
:10039000004E00E000E300E2000000000000002C3E
:1003A0000000000000E6000151E400500051004F41
:1003B0000035003A003B003C003D003E003F00405D
:1003C00000410042004300440045004C004600014B
:1003D00000010001000100005C0100010001004972
:1003E00000010001000100480001000100010001BE
:1003F00000010001000100010001000100010001F5
:100400000001000100000049004A00E10001000174
:100410000001000100010001000100A8000100012D
:10042000000100E500A9004D00E000E300E200004B
:100430000000000000010000000000E6000100E4F0
:10044000000100AA000100010001000100010001FB
:100450000001000100010001000100010001000194
:100460000001000100010001000100010001000184
:10047000000100010001000100010001004800012D
:100480000001000100010001000100010001000164
:100490000001000100010001000100000001000155
:1004A0000001000100010001000100010001000144
:1004B0000001000100010001000100010001000134
:1004C0000001000100000000000000010000000029
:1004D0000001000100010001000100010001000114
:1004E0000001000100010001000100010001000104
:1004F00000010001000100010001000100010001F4
:1005000000010001000100010001000100010001E3
:10051000000100480001000100010001000100018C
:1005200000010001000100010001000100010001C3
:1005300000000001000100010001000100010001B4
:1005400000010001000100010001000100010001A3
:100550000001000100010001000100000000000096
:100560000001000000000001000100010001000185
:1005700000010005010902A10185020901A1000590
:100580000919012908150025019508750181020541
:1005900001093009311581257F9502750881060909
:1005A000381581257F950175088106050C0A3802EA
:1005B0001581257F950175088106C0C00501098058
:1005C000A101850319012AB700150126B70095017D
:1005D00075108100C0050C0901A101850419012ACB
:1005E000A002150126A002950175108100C00660C9
:1005F000FF0961A1010962150026FF009520750819
:1006000081020963150026FF00952075089102C03C
:1006100005010906A101050719E029E715002501D3
:100620009508750181029501750881030507190078
:1006300029FF150026FF0095067508810005081999
:10064000012905950575019102950175039103C076
:1006500012034B004100570055004E004700360082
:1006600035000000100353005500470045004E00C0
:1006700047005A0000000403090409025B0003015B
:1006800000A0FA0904000001030101000921010191
:100690000001224000070581030800010904010050
:1006A00002030000000921010100012222000705C8
:1006B000840308000107050403080001090402007F
:1006C0000103000000092101010001227B00070550
:1006D00083030800011201100100000008E5600218
:1006E000600100010200010011241FBECFE5D8E027
:1006F000DEBFCDBF04B603FE24C08091F10290910D
:10070000F202A091F302B091F4028730904BA7401F
:10071000B04BB9F41092F1021092F2021092F3026F
:100720001092F40214BE84B7877F84BF0FB6F8948A
:10073000A89581B5886181BD11BC0FBEE0E0F8E3EA
:10074000099522E0A6EEB0E001C01D92A13FB207DC
:10075000E1F710E0A0E6B0E0E6EFFAE402C00590B1
:100760000D92A63EB107D9F70E94831E0C942C254A
:100770000C940000A82FB92F80E090E041E050EAEF
:10078000609530E009C02D9182279795879510F0EC
:1007900084279527305EC8F36F5FA8F30895EADFDA
:1007A0008D939D930895CF93CFB7CF93DF93C39548
:1007B000839BE9F7839B10C0839B0EC0839B0CC077
:1007C000839B0AC0839B08C0839B06C0C091CB0259
:1007D000C395C093CB028EC06F93C091CA02DD2730
:1007E000C153DD4F2F9365E5839B03C02F916F911C
:1007F000E1CF0F931F934F9320E040E15F9300B34D
:100800000C7003FB27F93F9350E03BE039C01C70AC
:1008100040642F77012F5F5F1EC0406810B31C70CB
:100820002F7752501FC0406400B32F770C70D1F166
:100830005F5F00C023C0406210B32F771C7091F13E
:100840005F5F00C025C00C701027515012F45D5F2F
:100850000000115027952C3F10B3C8F61C700127DB
:10086000015027952C3FC8F64227499300B30C70DE
:1008700010274F73115027952C3FA8F646954695A3
:1008800010B31C7079F00127015027952C3F98F682
:100890006B5A60F3315000B3B0F600C010E81ABFD5
:1008A00000271CC03B503195C31BD04010E81ABF35
:1008B0000881033C21F10B3411F12091C802198108
:1008C000110F1213EDCF4A81441F093679F10D3211
:1008D00011F0013E29F74F7009F0042F0093CE026A
:1008E0003F915F914F911F910F912F916F91CAB7D7
:1008F000C7FD5DCFDF91CF91CFBFCF9118952091EC
:10090000CE02222369F31091CC02112309F049C0D1
:1009100034300AF448C03093CC022093C9021091BD
:10092000CA023BE0311B3093CA023DC00091CC02A9
:100930000130BCF50AE54F7049F43091790034FD7F
:1009400033C000937900C5EAD2E032C0433059F099
:10095000443091F03091B00234FD26C00093B002D3
:10096000C1EBD2E025C03091E50234FD1DC00093FB
:10097000E502C6EED2E01CC03091BC0234FD14C0CA
:100980000093BC02CDEBD2E013C0052710E000C0FD
:10099000000002BB1AC0052710E0221F1DC010E096
:1009A00021C04AE502C032ED432FC4E1D0E032E07D
:1009B00011B31C60939A02B311BB5CE020E865E3BD
:1009C00020FF052702BB279517951C3FF0F666957B
:1009D000B8F7B1F720FF052702BB279517951C3FF5
:1009E000D0F62795179517FF052700001C3F02BB7F
:1009F000B0F629913A9519F7037F1091CD02110FA6
:100A0000C651D04002BB11F01093C80210E81ABFC3
:100A1000086011B3137F402F437F54E05A95F1F7DC
:100A200002BB11BB42BB5CCFFC018381833081F1EF
:100A300030F48130E9F0823019F180E0089581329C
:100A400009F440C08232C9F7248135812130310553
:100A500009F44DC02230310509F450C0232B69F749
:100A600080E196E09093A00280939F0280E4089535
:100A700085ED96E09093A00280939F0282E1089515
:100A80008AE796E09093A00280939F028BE50895F9
:100A90008281813061F0823091F08111CECF86E782
:100AA00096E09093A00280939F0284E0089584E6EC
:100AB00096E09093A00280939F0280E1089580E5E4
:100AC00096E0D8CF8281813061F0823069F0811167
:100AD000B4CF8CE896E09093A00280939F0289E0C7
:100AE000089585EA96E0F7CF85EC96E0F4CF2EEEF8
:100AF00035E03093A00220939F02089583E795E0AC
:100B00009093A00280939F028BE7089580919A02B0
:100B1000089588E198E00FB6F894A89581BD0FBEBE
:100B200091BDA895F894D8E0CEE528E3299320E07C
:100B3000299314BEFFCF08959C014FB7F89480917C
:100B4000E3019091E401A091E501B091E6014FBF6E
:100B5000821B930B08952FB7F8948091E301909135
:100B6000E401A091E501B091E6012FBF0895209125
:100B7000D7013091D8012817390771F09093D80127
:100B80008093D701E091D501F091D601309721F003
:100B90000084F185E02D099408952091D3013091CE
:100BA000D4012817390771F09093D4018093D301B1
:100BB000E091D501F091D601309721F00680F781C0
:100BC000E02D09940895E091D501F091D601309778
:100BD00021F00190F081E02D099480E00895FA0160
:100BE00081110994FB01FDCF08958091DC01982FBC
:100BF0009E7F29F4817082608093DC0108958A349D
:100C0000E8F381708864F8CF8F929F92AF92BF9281
:100C1000CF92DF92EF92FF920F931F93CF93DF93C8
:100C2000D82EC62EE901E42FF0E0EA5EFE4F6111F6
:100C300013C04491942FE42FE98348839A83DF9172
:100C4000CF911F910F91FF90EF90DF90CF90BF90C9
:100C5000AF909F908F900895062F10E0E49186E06A
:100C6000D89E700111242FEF30E0C701B9010E9416
:100C700037248D2D90E0880F991FF5E5F69FA00190
:100C8000F79F500D1124841B950B982F990F890FF6
:100C9000A901401B510BE49FD001E59FB00D112429
:100CA0004B2FC89E60011124CD2CDD245901AC18B6
:100CB000BD08EA9D6001EB9DD00C11249D2D4901DA
:100CC000881A9108809E5001819EB00C909EB00CB5
:100CD0001124AB2CBB242A193B09E29F8001E39F1E
:100CE000100D112463307105D1F08CEFE81683E00C
:100CF000F80670F461307105B1F062307105B9F039
:100D00008FEFE816F10408F097CF9B2F412F94CF77
:100D10006430710579F066307105B9F38DCF4D2DD2
:100D20009E2FEB2F89CF4E2FED2D9B2F85CF912F0F
:100D30004E2FF7CF9E2FE12F7FCF0E94AB05209142
:100D40007E0130917F01232B21F080937A019093D3
:100D50007B012091800130918101232B21F0809330
:100D6000780190937901E091D501F091D601309707
:100D700049F082E080937C010480F581E02D8CE7CE
:100D800091E00994089540917E01803F59F480914B
:100D90007F0187FF0DC010927F0141110BC010929F
:100DA000760108C0813F81F480917F0118169CF381
:100DB000442381F08091800190918101892B09F079
:100DC0005AC0109275010895823F49F447FFF0CF51
:100DD00010927E0180917F018111ECCFE0CF833FA3
:100DE00019F41416ACF3E4CF90918001893F29F4F3
:100DF0001916F4F610928001DBCF8A3F19F497FFA1
:100E0000D7CFF8CF909181018B3F29F497FFD0CFB6
:100E100010928101CDCF8C3F19F41916CCF3C8CFB5
:100E20009CE0980F953090F4845F990B21E030E0BE
:100E3000B90102C0660F771F8A95E2F7CB01809552
:100E400090917D01892380937D01B2CF8D3F31F454
:100E5000809177018E7F80937701AACF8E3F21F416
:100E6000809177018D7FF7CF8F3F09F0A1CF8091DF
:100E700077018B7FF0CF08958091770180FD16C0B8
:100E800081FD16C082FD16C0809175018823A1F0F6
:100E9000883280F428E0829FC001112468E270E06B
:100EA0000E944B24862F672B39F0089582E0089525
:100EB00084E0089588E0089581E0089580917701A5
:100EC00080FD14C081FD14C082FD16C080917601A2
:100ED000882381F0843180F422E3829FC0011124B1
:100EE00064E170E00E944B24862F08958CE0089501
:100EF00089E1089585E0089582E30895803F31F403
:100F00000E945E07819580937F010895813F19F4C7
:100F10000E945E07F8CF823F31F40E945E07819500
:100F200080937E010895833F19F40E945E07F8CFF5
:100F3000893F29F40E943C078093800108958A3FED
:100F400021F40E943C078195F7CF8B3F31F40E943A
:100F50003C0781958093810108958C3F19F40E948C
:100F60003C07F8CF9CE0980F953070F4845F990BA4
:100F700021E030E001C0220F8A95EAF780917D01DF
:100F8000822B80937D0108958D3F31F4809177010C
:100F900081608093770108958E3F21F480917701DD
:100FA0008260F7CF8F3FB9F7809177018460F1CFEE
:100FB00080E00895F894E82FE295EF70F0E041A901
:100FC0008F7021E030E0B90102C0660F771F8A956B
:100FD000E2F7CB01962F9095942391AB92A9892BA0
:100FE00082AB789408959091500192FF06C0282F0B
:100FF00028712830F9F4877F846093FF06C0282F7A
:1010000028712831F1F4877E84612091510120FFFD
:1010100006C0382F38713830D9F4877F816021FFBE
:1010200006C0282F28712831D1F4877E816194FD74
:10103000877E0895282F24712430F9F68B7F8860ED
:10104000DCCF282F2471243101F78B7E8861DDCF1E
:10105000382F3171313019F78E7F8860E0CF282F1B
:101060002171213121F78E7E8861E1CFCF93DF930B
:10107000EC01803E910509F460C050F58133910583
:1010800009F4A6C090F48932910509F49AC08A97B0
:1010900009F4A5C0C130D10509F462C0CE0104979E
:1010A000813A910508F055C05BC089339105F1F193
:1010B00082389105D9F1C59709F47CC0C83AD105A9
:1010C00008F094C0C53AD10528F3A497D06448C06D
:1010D000843E910509F453C068F4823E9105E1F124
:1010E000833E910509F440C0CE01805E91090897C6
:1010F00080F536C0863E910509F44CC0873E9105C7
:1011000009F44DC0811522E5920708F0AAC08115A7
:1011100031E5930708F0FAC08F3F910511F008F010
:1011200074C0803F910550F2D0651AC08091500183
:101130008370B1F0C0EED0E013C08091500180FD0B
:1011400012C19091510190FF0BC0C3EED0E084FF1B
:1011500007C0D0E0C0E004C08091500182FDF5CF0F
:10116000CE01DF91CF9108958091500182FDFEC0A4
:101170009091510190FDDECF84FFF2CFEACF8091B4
:10118000510181FFEDCF80915001C7EED0E084FD89
:10119000E0CFE6CF8091500183FDF7CFE1CF809182
:1011A000500183FDE6C09091510191FFE5CFC4EE5F
:1011B000D0E0D6CF8091500185FFD2CFC9E2D0E0F8
:1011C000CFCF8091500185FFCBCFC5E3D0E0C8CF12
:1011D0008091500186FFC4CFCAE2D0E0C1CF809198
:1011E000500186FFBDCFC1E3D0E0BACFCF3BD105E0
:1011F00008F07ACFC85AD0E0CC0FDD1FC258DF4FBD
:101200000990D881C02DD464ABCF811540E59407F7
:1012100060F4C11580E4D80708F075C0CE019A9536
:1012200081159F4108F49CCF94CFF4E09695879563
:10123000FA95E1F783702C2F26952695237040E2CE
:10124000249F90011124382B8C2F8370C1E0D0E0B3
:1012500002C0CC0FDD1F8A95E2F7C22BD32BDC68CE
:101260007FCFC11586E5D80730F5C11595E5D907BB
:1012700008F060C0C11524E5D207C0F49C2F9695F4
:1012800096959E0123703327C115D34508F043C0BE
:10129000C1E0D0E002C0CC0FDD1F2A95E2F720E2CA
:1012A000929FC0011124C82BD92BD9CFDC2FCC277A
:1012B000C46FD06A55CFC1153AE5D30788F4C1157C
:1012C00049E5D40708F041C0CE0198558F3F9105FC
:1012D00011F008F03ECFDC2FCC27C06FD06A40CF92
:1012E000CE0190568115904208F033CF8D2F8F712B
:1012F0000E94F30790E0982F882788279F719C0110
:101300002C2BE90120C0DF70D06A2ACFD82FCC2740
:10131000C16FD06A25CFC1E0D0E002C0CC0FDD1F85
:101320002A95E2F730E2939FC0011124C82BD92BF4
:10133000DA6816CF8C2F0E94F307C82FD0E0DC2F7D
:10134000CC27CC27DF71D0620BCF8C2F8F700E94FF
:10135000F30734E0D695C7953A95E1F7CF70DC2FC7
:10136000C82FD069FDCEC9E3D0E0FACEC2EED0E0FE
:10137000F7CEC6EED0E0F4CE80914B0181111092F1
:101380004B01089580914A0190914901892B9091D8
:101390004801892B8093E80090914B01992391F0AB
:1013A000892B8093E80020E08AEE90E0FC013081F8
:1013B000019631112F5F30E0803F9307B9F721117B
:1013C0000E94BC09E091D501F091D601309731F02F
:1013D0000280F381E02D88EE90E009940895EAEE12
:1013E000F0E09191891303C0DF0111971C9290E006
:1013F000E03FF907B1F70895AAEEB0E0EFEF90E013
:101400002D91821751F0EF3F19F4211101C0E92FFE
:101410009F5F9630A9F7EF3F09F408950E2E000C58
:10142000FF0BE851FF4F8283089580914601909110
:101430001501981301C008958F5F8770FACFE82FC8
:101440002FE0929FE00D11249E2F9770E695E69570
:10145000E69583E0E89FF0011124EF50FF4F50E044
:1014600040E080E0219130E0092E02C036952795BA
:101470000A94E2F721703327042E01C0220F0A9448
:10148000EAF7822B4F5F5F4F4330510559F70895BC
:10149000E82F2FE0929FE00D11248E2F877041E0FE
:1014A00001C0440F8A95EAF7E695E695E69583E054
:1014B000E89FF0011124EF50FF4F30E020E070E092
:1014C0005191DF011197CB01022E02C096958795AD
:1014D0000A94E2F7817081958527842385278C9370
:1014E0002F5F3F4F2330310559F7089590E080E09A
:1014F0000E94CD0590E080E00E94B705109249015E
:10150000109248010E94C20986E0ECE7F1E0DF0199
:101510001D928A95E9F7109276011092750110924A
:1015200077010C949D068093A4020C94760A809116
:10153000A402982F9670963019F488600C94930A40
:10154000877FFCCF21E030E001C0220F8A95EAF7C7
:1015500020958091A40282230C94930A90914701D4
:101560008095892380934701282F277039F4282FED
:10157000082E000C330B9217130621F490915101A1
:1015800092FF07C08595859585950E94A20A1092C5
:101590004701089521E030E001C0220F8A95EAF763
:1015A0008091A402822B0C94930A80934C010C949A
:1015B000760A882341F0809590914A01892380938F
:1015C0004A010C94C2090895882339F090914A0188
:1015D000892B80934A010C94C2090895882309F449
:1015E00059C0823871F40E94E30581FF53C089E33A
:1015F0000E94FC090E94C20989E30E94EF090C9431
:10160000C209833859F40E94E30580FF43C083E593
:101610000E94FC090E94C20983E5EFCF843859F487
:101620000E94E30582FF36C087E40E94FC090E9405
:10163000C20987E4E2CF9CEF980F913AF0F290E272
:10164000980F983088F4877021E030E0A90102C03B
:10165000440F551F8A95E2F7CA01809590914A017F
:10166000892380934A01CBCF9BE5980F933020F4D8
:1016700090E080E00C94CD0598E5980F973120F428
:1016800090E080E00C94B705803F20F00E94C306F4
:101690000C949D06089581FF02C0919A0895919837
:1016A0000895CF93DF938091CC02835087FD14C0BF
:1016B0009091CA02CCE0D0E0C91BD109C153DD4FE3
:1016C0009091C902903108F070C0883009F458C078
:1016D00010928F021092CC028091790084FF43C057
:1016E000809178008F3F09F43EC0C82F893008F000
:1016F000C8E0982F9C1B909378009091A50228E851
:1017000092279093A502882301F180919F029091E6
:10171000A00220919E0226FF0AC1FC012C2F46EA5E
:1017200052E03491DA013C934F5F5F4F3196215084
:10173000C1F79C012F5F3F4F8FEF8C0F820F932FCC
:10174000911D9093A00280939F026C2F86EA92E0F5
:101750000E94CF0384E08C0FC83019F09FEF909364
:1017600078008093790084E190B39C7031F48150CB
:10177000D9F71092CD021092C802DF91CF9108954F
:1017800080918F02893108F0A3CFE82FF0E0E15972
:10179000FD4F9E01285F3F4F999191932C173D0774
:1017A000D9F7885F80938F0295CF9D3209F0A3C04F
:1017B000883009F08FCF83EC8093A5028AE580936F
:1017C000790010929E028881807609F447C08032A9
:1017D00029F58981813099F48C819D81892BF1F4DF
:1017E00081E992E09093A00280939F0288E09F811C
:1017F000911131C09E81981770F5892F2CC08230CD
:1018000041F480E992E09093A00280939F0281E0EE
:10181000EECF8A3029F48B818093900280E0E7CF6D
:101820008930E1F78A819B818115924069F48C812E
:101830009D81892B49F481E080939D028E819F8157
:1018400090939C0280939B02888187FF52C08E8177
:1018500090E890939E02809378003CCF2A8110926A
:10186000AE02998191110AC01092AF022EEA32E0C5
:1018700082E03093A00220939F02B9CF953029F4E3
:101880002093CD022EEA32E0F4CF9630C1F49B8152
:10189000913049F4CE010E94140590E490939E0289
:1018A0008F3F91F2A4CF9230A9F3933099F3913204
:1018B00089F3923279F390E490939E0298CF983016
:1018C00089F0993019F420939902DCCF9A3071F0A5
:1018D0009B30C1F69BE49093B1029093E602909303
:1018E000BD02D0CF29E932E081E0C3CF2EEA32E059
:1018F000FBCF8FEFADCF80919E0287FFEBCE809123
:101900009B0290919C02892B71F080919D02813005
:1019100051F4888180939A0210929C0210929B024B
:1019200010927800D7CE8EE180937900D3CEDC017F
:101930002C2F46EA52E0FA013D9130834F5F5F4F12
:101940002150C9F7F6CE1F93CF93DF93782F162F30
:10195000EA01888184FF1EC0898128E88227898363
:10196000AE014E5F5F4FFA01272F392F710FD9015A
:101970002F5F3F4F8C918193872F821B1816BCF3EA
:10198000612FCA010E94CF031C5F1883DF91CF91A2
:101990001F9108958AE58883E3CF2091E50224FF13
:1019A00005C045EE52E066E00C94A30C08959B013F
:1019B00090916E02981307C040916C0250916D0295
:1019C00046175707B9F080936E0230936D0220934B
:1019D0006C028093690230936B0220936A028091BB
:1019E000E50284FF07C045EE52E063E089E692E03D
:1019F0000C94A30C0895BC0184E00C94D70CBC019A
:101A000083E00C94D70CCF93DF93CAE0D0E08091B1
:101A1000B00284FF1CC08091670290916802981701
:101A200099F028E0829FC001112440EB52E068E069
:101A300089519E4F0E94A30C8091670290E001960D
:101A40008F70992780936702DF91CF9108950E944C
:101A5000510B8FE99FE00197F1F700C0000021973B
:101A6000B1F6F2CFCF93DF93D82FC92FA0916802A0
:101A7000B0E0CD0101968F70992720916702281759
:101A800081F093E0AA0FBB1F9A95E1F7A951BE4FD1
:101A900098E0ED2FFC2F01900D929A95E1F780933D
:101AA00068020E94510B0E94030D88E0ED2FFC2F6D
:101AB000A1E9B2E001900D928A95E1F7DF91CF9113
:101AC00008958091DC0180FD0AC0EBE8F1E011820D
:101AD00010821282339651E0E33DF507C1F7889AF0
:101AE00032B33E7F22B321604FB7F8948BE891E088
:101AF000FC010196508168E022BB000000C057FF46
:101B000032BB550F000000C000C000C032BB00C097
:101B10006A9591F751E0833D950751F74FBF8FE5E7
:101B200094E00197F1F700C0000008958091E20170
:101B3000882301F180E00E944B0B1092DA01809122
:101B4000E101811117C081E08093E1018091DC0106
:101B5000982F91709093DB018E7F8093DC012FEFA3
:101B600080E792E0215080409040E1F700C0000003
:101B70000C94610D0895EF92FF920F931F93CF93F2
:101B8000DF93EC010BE811E0F12CE12C6091DE0118
:101B90008091DD019C812CE0E216F104FCF4992394
:101BA000F9F098014091DF010E9404068FEFE81AD6
:101BB000F80A0D5F1F4F28E1E216F10439F70E9481
:101BC000610D8C8190E00196817099278C83DF9163
:101BD000CF911F910F91FF90EF900895992309F3F2
:101BE000980140E0E1CFCF92DF92EF92FF920F9306
:101BF0001F93CF93DF93CDB7DEB72E970FB6F89430
:101C0000DEBF0FBECDBF8D879E87AD85BE85149686
:101C10001C91212F30E0D9010E941D259B01AC01B0
:101C20000E94E82469837A838B839C83E0E2F0E05E
:101C3000E11BF109A5E5B0E09B01AC010E94E8249D
:101C400069877A878B879C879F01DF010E946C24BC
:101C50009B01AC010E94F3246D837E838F83988760
:101C60009B01AC0189819A81AB81BC81280F391F0E
:101C70004A1F5B1F69857A858B859C850E94FB24A2
:101C8000F22E822F90E0A9E2A21708F442C0B3E03E
:101C90002B9F9001112435952795122F10959BE8C5
:101CA000C92E91E0D92E00E085E5E82EEF188E2DA3
:101CB00001FD8F2D9601412F6091DE010E940406E7
:101CC0000F5FF3E0CF0ED11C083189F70E94610D40
:101CD000AD85BE8514969C9181E0992319F09032D0
:101CE00019F48FEF8093770080917700890FED854D
:101CF000FE8584832E960FB6F894DEBF0FBECDBF4F
:101D0000DF91CF911F910F91FF90EF90DF90CF90D7
:101D1000089525E530E0F901E81BF90B9F01220F3A
:101D2000331F2E0F3F1F37FFB6CF2F5F3F4FB3CF6D
:101D30000F931F93CF93DF93CBE8D1E0FE01118285
:101D400010821282339681E0E33DF807C1F710E07C
:101D500000E080918901082E000C990B08171907E3
:101D60008CF180917600082E000C990B801791075A
:101D70004CF19E014091DF016091DE018091DD0117
:101D80000E9404060F5F1F4F23960831110509F7C3
:101D90000E94610D8091750090918901980F909338
:101DA000890120917600280F20937600121614F4F2
:101DB00097311CF0819580937500DF91CF911F9131
:101DC0000F910895198218821A82DCCFCF92DF9288
:101DD000EF92FF920F931F93CF93DF93FC018281C9
:101DE000DD24DA9480FD02C0DD24D3940BE811E0F9
:101DF000D0E0C0E0F80111821082128294E0E92E56
:101E0000F12CC12C809188018C0D8931E4F168E1BD
:101E10000E942924892F082E000C990B8C179D07EE
:101E200091F48091DF018E9DA0018F9D500D1124B2
:101E3000559547955595479598016091DE0180919C
:101E4000DD010E940406CD0CF1E0EF1AF108D1F695
:101E500021960D5F1F4FC831D10561F60E94610DBB
:101E60008091880191E0D91214C0811110C087E1DE
:101E700080938801DF91CF911F910F91FF90EF9098
:101E8000DF90CF90089587FFC6CF885EC4CF815082
:101E9000EFCF90E00196BE010E944B24E9CFEF9274
:101EA000FF921F93CF93DF93EC018BE8E82E81E044
:101EB000F82E10E08C8197014091DF016091DE01E6
:101EC000810F0E940406165F83E0E80EF11C103FAC
:101ED00089F70E94610D9A818C8190FF08C08F5F05
:101EE0008C83DF91CF911F91FF90EF9008958150E7
:101EF000F7CF9091DC0190FF0CC0EBE8F1E081831B
:101F000060834283339691E0E33DF907C1F70C9477
:101F1000610D08950F931F93CF93DF9300D00F921D
:101F2000CDB7DEB78C0180918A0181110AC09E0174
:101F30002F5F3F4F4FEF6FEF0E9404068A8180931F
:101F40008A01F8016481613049F06230F1F08091DA
:101F50008A0140E0662331F040E019C060918A01B7
:101F600040E080E00E94790FF801848190E00196C2
:101F700063E070E00E944B2484830F900F900F90D9
:101F8000DF91CF911F910F91089540918A0180E0D8
:101F900060E0E8CFCF93DF9300D00F92CDB7DEB7EC
:101FA0009091DC0190FF0AC09E012F5F3F4F0E947D
:101FB00004064B8169818A810E94790F0F900F90EE
:101FC0000F90DF91CF910895CF93DF93EC01ECED6B
:101FD000F1E0438162818C810E94CA0F8C818F5F06
:101FE0008C83DF91CF910895CF93DF93EC01EC8147
:101FF000F0E0E55EFD4F4491ECEDF1E0628181811E
:102000000E94CA0F8C818F5F8C83DF91CF910895DE
:10201000CF93C82F882309F48FC08238C1F40E945F
:10202000E30581FD89C089E30E94FC090E94C20981
:102030002FEF31EE84E0215030408040E1F700C0C6
:10204000000089E30E94EF09CF910C94C209833804
:10205000A1F40E94E30580FD6FC083E50E94FC09A6
:102060000E94C2099FEF21EE34E0915020403040A1
:10207000E1F700C0000083E5E5CF8438A1F40E94B9
:10208000E30582FD59C087E40E94FC090E94C20951
:102090008FEF91EE24E0815090402040E1F700C0A6
:1020A000000087E4CFCF8CEF8C0F813A68F4EAEE22
:1020B000F0E08191C817D1F130E0E03FF307C9F7B4
:1020C0008C2F0E94FC09C0CF80E28C0F883068F40E
:1020D000C77021E030E001C0220FCA95EAF7809175
:1020E0004A01822B80934A01AFCF8BE58C0F83305E
:1020F00038F42C2F2452330BC901CF910C94CD0509
:10210000E8E5EC0FE73150F4F0E0EE0FFF1FE25886
:10211000FF4F80819181CF910C94B705C03F60F053
:102120008C2F0E947E07CF910C949D068C2F0E94CD
:10213000EF090E94C209C4CFCF9108950F931F9356
:10214000CF93C82F10E000E0893311F400E510E0D0
:102150008C2F0E9408100115110531F48C2FCF919E
:102160001F910F910C94EE0A8FE99FE00197F1F710
:1021700000C0000001501109EECFFF920F931F9392
:10218000CF93DF93C62FD42F122FFC018281882397
:10219000A9F06093A3020E94AB059093A2028093E2
:1021A000A102C77081E001C0880FCA95EAF7DF91EC
:1021B000CF911F910F91FF900C94E40A8091A3029C
:1021C000681334C08091A1029091A2020E949C05E4
:1021D000883C910558F500E20D0FCD17A9F0C770A6
:1021E000FF24F3948F2D01C0880FCA95EAF70E944F
:1021F000D90A083048F48D2F877001C0FF0C8A95EA
:10220000EAF78F2D0E94E40A812F0E949E10083069
:10221000A0F4D77081E001C0880FDA95EAF7DF916A
:10222000CF911F910F91FF900C94D90AC77081E054
:1022300001C0880FCA95EAF7F2CFDF91CF911F91C5
:102240000F91FF900895CF93DF93CFE7D2E060E046
:10225000CE010E94B5242196C11584E0D807B9F7B4
:10226000DF91CF9108956F927F928F929F92AF925C
:10227000BF92CF92DF92EF92FF920F931F93CF9373
:10228000DF93D12CC12C3BEDA32EB12CE501C65917
:10229000D10936011BC0F70185909490692DC801C2
:1022A0000E94B524682DC80101960E94B52422E041
:1022B000E20EF11C0E5F1F4FC017D10761F73FE020
:1022C000630E711C6E96CA15DB0559F0C301880FA9
:1022D000991F9C01255E3C4F79018E010E51110919
:1022E000DACFCE018A569F4F5C019BE4C90ED11C08
:1022F000CD39D24059F6DF91CF911F910F91FF90C8
:10230000EF90DF90CF90BF90AF909F908F907F9095
:102310006F900895CF93C82F6FEF811162E283E22F
:1023200090E00E94B5246FEFC11166E084E290E076
:102330000E94B5246FEFC11168E185E290E0CF9172
:102340000C94B52480E00E948A1160E086E290E05F
:102350000E94B5240E9433110E94231181E00C9445
:102360008A11CF93C0915101C2FB992790F9981718
:1023700081F080FBC2F9C09351016091500184E06B
:1023800090E00E94B5246C2F82E290E0CF910C94F3
:10239000B524CF9108950F931F93CF93DF93C42F4C
:1023A000D0E0CC0FDD1F2EE1629FC00DD11D1124A6
:1023B00036E9839FC00DD11D1124CE0187960E945E
:1023C000A124082F10E0102F0027CE0188960E942C
:1023D000A1249801282BC901DF91CF911F910F9162
:1023E0000895462F672F843030F4753020F44F3035
:1023F00010F40C94CB1190E080E00895DF92EF92FE
:10240000FF920F931F93CF93DF937C010091A4025F
:1024100080914C01082BC7E0D0E010E0DC2EC80111
:102420000C2E02C0959587950A94E2F780FD0CC0AA
:102430002197A0F7D12C8D2DDF91CF911F910F9176
:10244000FF90EF90DF900895B7018C2F0E94F1115B
:102450000E943608019761F3EECFCF93DF93D82F18
:10246000C92F0E94FE116D2F7C2F0E94F111DF9168
:10247000CF910C943608FC01808191810E942D122D
:10248000282F892F8F70392F32953F70903C80F420
:102490003A30B0F4343020F4323090F480E00895D3
:1024A0003630E1F781E0283E88F0213FB9F70EC0D1
:1024B0003C3011F03F3091F78695869586950895CA
:1024C00081E0203F39F018F4283E40F70895243F7A
:1024D00029F7FCCF089583E290E00E94A124823284
:1024E00089F484E290E00E94A124863059F485E2C8
:1024F00090E00E94A12491E0883109F090E0892FBA
:102500008170089580E0FCCFCF9384E090E00E943A
:10251000A124C82F82E290E00E94A124982F8C2F42
:10252000CF9108956091DC01669570E04BE050E03A
:102530008AE690E00E948724892B19F481E0809339
:10254000DA010E94AB059093830180938201089584
:102550000F931F93CF93DF938B01D82FC92F0E9426
:10256000F505A8016D2F7C2F88E090E0DF91CF91D9
:102570001F910F910C94C6245F926F927F928F925D
:102580009F92AF92BF92CF92DF92EF92FF920F9302
:102590001F93CF93DF9300D000D000D00F92CDB720
:1025A000DEB7182F762E042F622E9091DC0190FF5B
:1025B0002BC0E92FE695AE2FB0E0A054BF4F8C9111
:1025C0008093D9019E7F9230A9F59E012F5F3F4FE6
:1025D000812F0E9404064B8169818A810E94790FB4
:1025E0001093DD017092DE010093DF01662061F03F
:1025F0008091DC019091DD01A091DE01B091DF01BD
:10260000BC01CD010E94A81227960FB6F894DEBF38
:102610000FBECDBFDF91CF911F910F91FF90EF9033
:10262000DF90CF90BF90AF909F908F907F906F90F2
:102630005F900895823019F40091DF01D1CF863088
:1026400019F41091DD01CCCF8930D9F3893141F6ED
:10265000E9518E2F8170582EE695F0E0EA5EFD4F2D
:10266000A590B490BB248BE8E82E81E0F82ED12C05
:10267000C12C98E1892E912CC601B4010E94372407
:10268000812F511013C0860F9701402F672D0E9494
:102690000406CA0CDB1C93E0E90EF11CA3EDEA165C
:1026A000A1E0FA0649F70E94610D9ACF861BECCF94
:1026B000ECEDF1E0438128E0421B08F440E021E02A
:1026C000628181810C94BC12ECEDF1E0438128E041
:1026D000420F08F44FEF21E0628181810C94BC121B
:1026E000ECEDF1E0628128E0621B08F460E021E09B
:1026F000438181810C94BC12ECEDF1E0628128E011
:10270000620F08F46FEF21E0438181810C94BC12C9
:10271000ECEDF1E0818121E04381628188500C94ED
:10272000BC12ECEDF1E0818121E043816281885FA0
:102730000C94BC12CF93DF9300D000D0CDB7DEB79E
:102740008091E001882319F081508093E00180910D
:10275000DC019091DD01A091DE01B091DF01898360
:102760009A83AB83BC83BC01CD010F900F900F9077
:102770000F90DF91CF910C94A812CF93DF9300D0EC
:1027800000D0CDB7DEB78091E001833018F48F5FC1
:102790008093E0018091DC019091DD01A091DE0148
:1027A000B091DF0189839A83AB83BC83BC01CD01E7
:1027B0000F900F900F900F90DF91CF910C94A81273
:1027C000CF93DF9300D000D0CDB7DEB79091DC017E
:1027D00090FF42C09170811135C092609093DC01EE
:1027E000662381F08091DC019091DD01A091DE01F2
:1027F000B091DF0189839A83AB83BC83BC01CD0197
:102800000E94A8126091DC01669570E04BE050E0F8
:102810008AE690E00E948724892BD9F01092DA0191
:1028200081E08093850120E04091DF016091DE012D
:102830008091DD010F900F900F900F90DF91CF915D
:102840000C94BC12853210F09864C8CF880F982B76
:10285000C5CF0E949212E4CF0F900F900F900F906F
:10286000DF91CF9108959091DC0196958FEF890FBC
:10287000913009F484E261E00C94E0138091DC0172
:1028800086958F5F853208F081E061E00C94E0135B
:102890009091DC0190FF07C09695981720F096174D
:1028A00010F40C943E1461E00C94E013CF93DF938A
:1028B00000D000D0CDB7DEB7ECEDF1E083E080834F
:1028C00011828FEF82838383148280819181A28120
:1028D000B38189839A83AB83BC83BC01CD010F9004
:1028E0000F900F900F90DF91CF910C94A81269EE8A
:1028F0007EEF90E080E00E94D22460E082E090E0F1
:102900000E94B52460E083E090E00E94B52410921C
:102910004C0160E084E090E00E94B52460E082E237
:1029200090E00E94B52460E085E090E00E94B5242C
:1029300060E086E090E00E94B5246FEF87E090E0D1
:102940000E94B52440E050E0BA0188E090E00E9487
:10295000C62460E08DE090E00E94B52440E050E0A5
:10296000BA0188E190E00E94C62460E087E190E02F
:102970000E94B52440E050E0BA018CE190E00E9452
:10298000C62470E060E080E290E00E94D22440E043
:1029900050E0BA0188E190E00E94C62480E00E94E5
:1029A0008A110E94A21140E050E0BA018FE090E04D
:1029B0000E94C62440E050E0BA0183E190E00C940C
:1029C000C6246F927F928F929F92AF92BF92CF92C6
:1029D000DF92EF92FF920F931F93CF93DF93CDB7C8
:1029E000DEB72A970FB6F894DEBF0FBECDBF8E01BB
:1029F0000F5F1F4F8AE0F80111928A95E9F78CEA80
:102A0000E82E80E0F82E680191EB692E90E0792E97
:102A100088248394912CF70181917F018F3F09F4E1
:102A20004BC0F894E82FE295EF70F0E021A98F7089
:102A3000A40102C0440F551F8A95E2F7CA01922FE4
:102A4000982B91AB92A98095892382AB789400C092
:102A5000E1EBF0E030E020E0B12CA12C81918F3F40
:102A600009F485C0A82FA295AF70B0E0D0964C9124
:102A700050E08F7002C0559547958A95E2F740FD6A
:102A800076C0C401022E02C0880F991F0A94E2F793
:102A9000A82AB92A2F5F3F4F2F303105F9F6F701E9
:102AA000319780818F3F11F00E94DA0750EA5A95E2
:102AB000F1F7F601B182A082F2E0CF0ED11C6E14C4
:102AC0007F0409F0A8CF4AE050E0B80182E591E028
:102AD0000E9494249C01FF24F394892B09F4F12C87
:102AE000232B09F447C08AE0F801A2E5B1E0019088
:102AF0000D928A95E1F781E080934F010E94AB052A
:102B000090934E0180934D0180914D0190914E0123
:102B10000E949C05059790F180915201909153017C
:102B200090936A01809369018091540190915501BD
:102B300090936C0180936B018091560190915701A5
:102B400090936E0180936D0180915801909159018D
:102B50009093700180936F0180915A0190915B0175
:102B6000909372018093710110924F0107C090E021
:102B700080E08ECF80914F018111C6CF8F2D2A9694
:102B80000FB6F894DEBF0FBECDBFDF91CF911F917E
:102B90000F91FF90EF90DF90CF90BF90AF909F90FC
:102BA0008F907F906F90089590E080E00E94AF2416
:102BB000893E9E4F11F40C946B1280E008951092A0
:102BC0004A01EAEEF0E086E0DF011D928A95E9F71E
:102BD0000C94760A3F924F925F926F927F928F92FF
:102BE0009F92AF92BF92CF92DF92EF92FF920F939C
:102BF0001F93CF93DF93CDB7DEB729970FB6F89425
:102C0000DEBF0FBECDBF8C01DC0113968D919C9170
:102C10001497892B39F08C9111969C9189238F3FC1
:102C200009F0CAC529960FB6F894DEBF0FBECDBF16
:102C3000DF91CF911F910F91FF90EF90DF90CF9098
:102C4000BF90AF909F908F907F906F905F904F90CC
:102C50003F9008950E94FE11F82E682F89819A8175
:102C60000E94480A69817A818F2D0E94F1117C01AE
:102C7000F8018281882309F491C5970122513F45CB
:102C80002031310508F027C58FEF93E00E94A12481
:102C9000FEEEEF0E4FE7842E42E0942E882391F152
:102CA00080914701877009F4BDCFD80112968C91AD
:102CB000882309F4B7CF82E029960FB6F894DEBFD7
:102CC0000FBECDBFDF91CF911F910F91FF90EF907D
:102CD000DF90CF90BF90AF909F908F907F906F903C
:102CE0005F904F903F900C94AE0A811424E09206BE
:102CF000B9F2C4010E94A124811101C0EA943FEFFE
:102D0000831A930AE110F1CF80917A0090917B00B1
:102D1000A0917C00B0917D0089839A83AB83BC83B2
:102D2000442443943AE0332E74018FEFE81AF80AF2
:102D3000C4010E94A12489831A82882309F4B0CF98
:102D40009FEF980F933000F58A83498292E0890EB5
:102D5000911CC7010E94A1248B83882309F4A0CF72
:102D6000DE0111967D01F70120812223E9F2213055
:102D700009F04AC091818281913041F4F2E0EF0E76
:102D8000F11C0E949E1009C04701EACF923049F41D
:102D900022E0E20EF11C0E940810EFEFEE1AFE0A8C
:102DA000E2CF933031F432E0E30EF11C0E94EE0AE0
:102DB000F4CF943021F08FEFE81AF80AEECF92E0CA
:102DC000E90EF11C30E020E0B7016F5F7F4FD701C3
:102DD00011964C918053990B8A30910550F02150F7
:102DE0003109D8F2EFE9FFE03197F1F700C00000B8
:102DF000F6CF329EF001339EF00D11249C012E0F70
:102E00003F1F842F7B01E0CFE22FF0E0EC57FF4F14
:102E10005490822F86958695869590E0FC01EC581B
:102E2000FF4F64902770712C022E02C07594679436
:102E30000A94E2F731E063227724FC01EC59FF4F5A
:102E4000A490B12C022E02C0B594A7940A94E2F784
:102E5000A1E0AA22BB24FC01EC5AFF4FC490D12C64
:102E600002C0D594C7942A95E2F7B1E0CB22DD24C5
:102E70006114710419F081EE0E940810A114B104CC
:102E800019F086EE0E940810852D0E949E10AB2836
:102E900019F086EE0E94EE0A672819F081EE0E9472
:102EA000EE0ACD2809F479CF8CE26BCF81E00E9445
:102EB000CA0A0E94970AF4CE81E00E94A20AF9CFC2
:102EC00082E0F5CFB5EFEB16BCE5FB06E9F027E2B3
:102ED00045EE66EEE6EFEE16ECE5FE0649F027E27B
:102EE00045EE64EEF4EFEF16FCE5FF0609F01EC4B4
:102EF000C8010E94BD10D4CE27E245EE65EEF8CFA2
:102F000026E241EE60EEF4CF26E241EE62EEF0CF33
:102F100081E6E8168DE5F80609F41EC480914A01A1
:102F2000827226EDE2162CE5F20608F0CFC032ECF4
:102F3000E3163CE5F30608F4D6C0F701E35CFC4574
:102F4000E331F10508F020C1E25DFA4D0C945F24F5
:102F5000F701E350FC45809150018160E331F105B8
:102F600048F5EF5BFA4D0C945F24B3E0EB16BDE53A
:102F7000FB0680F4EAEFEE16ECE5FE0608F4FEC36D
:102F8000F701EB5FFC45E830F105F8F4EC5AFA4D37
:102F90000C945F24F1E6EF16FDE5FF0609F0EEC3A1
:102FA00090915001892F8F7E94FF806103C08091A2
:102FB0005001826080935001E1C380915001846090
:102FC000F9CF809150018860F5CF809151018160E7
:102FD00080935101D3C3809151018260F9CF8091D8
:102FE00050018061E7CF809150018062E3CF8091F2
:102FF00050018064DFCF0E94DF158091500180680E
:10300000D9CF809150018C60D5CF809151018360E0
:10301000DFCF809150018E7FCDCF809150018D7F89
:10302000C9CF809150018B7FC5CF80915001877FA0
:10303000C1CF809151018E7FCBCF809151018D7F87
:10304000C7CF809150018F7EB5CF809150018F7D89
:10305000B1CF809150018F7BADCF0E94DF15809161
:1030600050018F77A7CF80915001837FA3CF8091AC
:1030700051018C7FADCF8091500182FB992790F94F
:1030800021E0922790FB82F990FB83F993CF809106
:103090005101982F909591708E7F892B90FB81F92B
:1030A00097CF0E94DF1590915001892F97FB87F9E8
:1030B000805880CF61E08EE090E00E94B5245EC32E
:1030C00060E0F9CF85E39CC385E3AAC38DE5E816EC
:1030D000F80609F4E5CDEAE5EE16EDE5FE0609F49D
:1030E000F7C008F0CFC0E1142CE5F20609F4DFC008
:1030F0003EEDE3163CE5F30609F4E7C0F8018281F2
:10310000C080D180882309F4E7C0C6010E94FE1167
:10311000F82E682FC6010E94480AB6018F2D0E9422
:10312000F1110E9436087C01882ED80112969C90DD
:10313000129715967C9072942FE07222809147012D
:103140008770A1F0C92C992091F08F2D807F803459
:1031500021F080E28E0D883048F082E00E94AE0AB5
:10316000809147018770CC24C3948111C12C8F2D8D
:1031700082958F70A82EB12C8C3008F0E9C0F50133
:10318000E45AFA4D0C945F248091DC0180FF21C049
:103190008E7F8093DC018091DC019091DD01A09114
:1031A000DE01B091DF018E839F83A887B987BC01C0
:1031B000CD010E94A8121092DA019FEFA0E7B2E0C1
:1031C0009150A040B040E1F700C000000E94610DA6
:1031D00067CD81608093DC0161E086950E94E013F9
:1031E0005FCD43E354E16EE374E10E94EF0558CDF7
:1031F0004EE354E163E374E1F8CF48E853E161E959
:1032000073E1F3CF41E953E168E873E1EECF40E7C2
:1032100053E16CE773E1E9CF4CE753E160E773E119
:10322000E4CF48E553E164E673E1DFCF44E653E1E0
:1032300068E573E1DACF4AE953E16DEB73E1D5CF8D
:103240004DEB53E16AE973E1D0CF61E081E0C6CF95
:1032500065E082E00E94481423CD68E086E0FACF62
:103260006EE089E0F7CF64E18FE0F4CF67E185E1BC
:10327000F1CF61E088E1B2CF62E289E1EBCF61E0BA
:1032800083E2ACCF8BE5E8168DE5F80619F19CE5F5
:10329000E9169DE5F90609F031CF8091510182FBD5
:1032A000882780F991E089270E94B11127CF0E94D9
:1032B000DF15AFEFB4E3ECE0A150B040E040E1F740
:1032C00000C000000E948905EBCC0E947714E8CC76
:1032D00081E0EACF80E0E8CFC6010E941F0AF82E05
:1032E0001CCFBF2DBF70DB2E8F2D807F19F0D294A5
:1032F00090EFD9228E2D9920C9F0DD2069F090E25F
:103300009E0D983010F0E1100BC080914A01D82A30
:10331000D0924A010E94C2098E2D0E94081018C046
:1033200080914901D82AD0924901F4CF0E94EE0A37
:10333000DD2071F0D09480E28E0D883010F0811085
:1033400042C080914A01D822D0924A010E94C2090B
:1033500038E0A31AB10884E0A816B10420F40E9452
:10336000E3050E944B0BCC2009F45CCC8091470113
:1033700080FD58CCD80112961C928595859585952F
:103380000E94CA0AC8010E94EA15809147018595EA
:103390008595859529960FB6F894DEBF0FBECDBFF3
:1033A000DF91CF911F910F91FF90EF90DF90CF9021
:1033B000BF90AF909F908F907F906F905F904F9055
:1033C0003F900C94A20A80914901D822D0924901E1
:1033D000BDCFEF2DEF70DE2E8F2D807F803219F064
:1033E000D29480EFD8228E2D882089F0F1E08F16BC
:1033F00099F19920F1F17720A9F1D80115968C91D6
:10340000159780FF89CF8F7015968C932BC09920CC
:10341000B1F090914B018D2D892B711003C00E944A
:10342000E40A96CF21E07212FACF2091510122FDD9
:103430008FCF981709F48CCF80934B0189CF7110EF
:1034400006C00E94BC098D2D0E94D90A81CF31E0AF
:10345000731609F47DCFF5CF992031F085E08715FB
:1034600008F476CF8D2DDBCF94E0971508F470CF5C
:10347000EACF772041F3893349F4BFEFE7EEF3E079
:10348000B150E040F040E1F700C000008E2D0E94F6
:10349000EE0A5ECF8F2D86958695837061F0813020
:1034A00009F056CFC7019370911002C090E080E000
:1034B0000E94B7054DCFC7019370911002C090E0F4
:1034C00080E00E94CD0544CF8E2D992029F00E94E6
:1034D0007E070E949D063CCF0E94C306FACF8F2D27
:1034E000837099F5911034CF4E2D429546954770D3
:1034F000440F440F8E2D8F70042E01C0880F0A9444
:10350000EAF72E2D2071E4FE07C02FE030E001C065
:10351000220F4A95EAF720953F2D36953695337060
:10352000323071F0333051F040914C01313029F09C
:10353000822B84230E94D50A0BCF842B822BFACFB7
:10354000282B80914C018227F5CF8695992011F088
:103550008F2D8170882309F4FBCE4E2D4295469520
:103560004770440F440F8E2D8F70042E01C0880FBA
:103570000A94EAF72E2D2071E4FE07C02FE030E018
:1035800001C0220F4A95EAF720953F2D36953695D2
:103590003370323071F0333051F04091A402313049
:1035A00029F0822B84230E94930AD2CE842B822B73
:1035B000FACF282B8091A4028227F5CF2F2D2F70D0
:1035C000F22E992029F0822F0E94CA0A8E2D27CF31
:1035D0008E2D0E94D90A8F2D0E94A20AB9CE8E2D5F
:1035E00032EF831609F44BC0381570F090EF89164E
:1035F00039F1A1EF8A16D9F1992009F45CC0711054
:103600008BCE8F2D8F7138C0B3EF8B16E9F1E4EFBD
:103610008E12F2CF992009F443C03F2D3F71F32E53
:10362000832F0E94CA0A8091510182FD07C0A8E041
:10363000FA9EC00111248360809347018F2D1CC026
:10364000992081F0F4E0F71508F482CE2F2D2F7128
:1036500081E090E001C0880F2A95EAF79091A402DA
:103660008927A1CF25E0271508F472CEEFCF8F2D43
:103670008F71992009F4B0CF0E94CA0A69CE8F2DAC
:103680008F719920C9F3A8CF80E0992009F48BCFDE
:103690009F2D9F7181E001C0880F9A95EAF783CF33
:1036A00081E00E94AE0AB1E0B71508F051CE82E089
:1036B0000E94AE0A4DCE772059F0893309F0E6CE4C
:1036C000EFEFF7EE23E0E150F0402040E1F7DCCEF1
:1036D0008F2D8F7181CFB0E1EB16BFE5FB0609F4AA
:1036E000E5CBE1E1EE16EFE5FE0609F4E9CBF3EFF9
:1036F000EF16FCE5FF0609F403CC08F0E3CB38ED48
:10370000E3163CE5F30609F4F7CB28E241E099ED36
:10371000E9169CE5F90609F4F1CB26E241EE61EEEB
:10372000A7EDEA16ACE5FA0609F4E2CB882309F422
:103730006CC01092A30223E0E2162DE5F20608F019
:10374000E7CB3AEFE3163CE5F30630F4C7018250CD
:103750009C45449708F043C00E9484129093510105
:103760008093500196E1E9169CE5F90608F0FDCB3F
:10377000A2E0EA16ACE5FA0608F0EACB6091500147
:10378000F090510184E090E00E94B5246F2D82E218
:1037900090E00E94B5240E94DF1582CAF0E1EF1686
:1037A000FFE5FF0609F488CB21E1E2162FE5F206DA
:1037B00009F09DCF82E081CB85E0F801DE01119612
:1037C00001900D928A95E1F7D80112962C9189818A
:1037D0009A8121113FCA0E941F0AF82E43CAB6E1FE
:1037E000EB16BCE5FB0609F099CB80914A018A7A79
:1037F00091E009F490E09093F000811163CC89E2AC
:103800000E94FC090E94C2094BCAE6E1EE16ECE5F3
:10381000FE0609F073CC8091F000811155CC89E24D
:103820000E94EF09EFCF1F93CF93DF938091140194
:10383000807FA9F480911101882389F0809146014D
:10384000D091150160910F0170911001A0911201AA
:10385000B0911301C62FC72316E0D81304C0DF911F
:10386000CF911F91089590E0109711F0CF3F19F478
:1038700001968770F2CF189F9001199F300D112487
:10388000F901EA5EFE4F41814713F2CF40814613B2
:10389000EFCF42814111ECCF438154814A1B5B0B36
:1038A000483C510528F7809114018F708061809306
:1038B0001401F901E55EFE4F80818F708061808385
:1038C0008FE091E00E94EA15DF91CF911F910C9457
:1038D000150AAF92BF92CF92DF92EF92FF920F93B1
:1038E0001F93CF93DF93CDB7DEB72B970FB6F89426
:1038F000DEBF0FBECDBF8C0185E0F801DE0117965B
:1039000001900D928A95E1F7F801E2808FE0A82EF0
:1039100081E0B82E6091120170911301611571055B
:1039200009F41AC190910F0140911001842F89234D
:103930008F3F09F411C120813181C380D480F09080
:103940001101F601E61BF70BFF2009F4D0C08091AE
:103950001401582F507FE83CF10508F0ABC051111D
:1039600077C0FE2C431321C092131FC0E1101DC06D
:103970008F70806180931401C5010E94EA158091C7
:103980001401F80185838F2D2B960FB6F894DEBFB6
:103990000FBECDBFDF91CF911F910F91FF90EF90A0
:1039A000DF90CF90BF90AF900895CD2829F0822F5F
:1039B00083238F3F09F0EBC080E0F82FF170DF2EFA
:1039C000E09146014091150156E080FD1CC0EE20BB
:1039D000D1F280911401816080931401F12CD3CF36
:1039E0008E2F90E05E9FF0011124EA5EFE4F618110
:1039F000361306C06081261303C06281E612E7CF4A
:103A0000FC013196E770E413EBCF2F8338878F8169
:103A100098850E942D12292F22952F70903260F0E8
:103A2000225F2F70223078F49F7051F0F801958159
:103A3000907F31F4D12C0AC09F7011F08823D1F30C
:103A4000805E8830B8F3C8010E94EA15FD2C9BCF38
:103A5000431306C0921304C0F801EE2009F461C0BC
:103A6000C8010E943B12882309F1EE20F9F08091F1
:103A70001401803270F020910F01309110013A83CF
:103A800029831B82DD82CC828E83CE0101960E9427
:103A9000EA1586E0F801AFE0B1E001900D928A9559
:103AA000E1F70E94131CFF24F3946DCFC8010E941C
:103AB000EA15F9CF51110AC08FE091E00E94EA1592
:103AC00086E0F50111928A95E9F788CF4313C8CFB4
:103AD0009213C6CFE110C4CFF8018583C8010E94BC
:103AE000EA1586E0F50111928A95E9F74CCFE83C9A
:103AF000F105B8F7FE2CEE20C9F243131FC0921354
:103B00001DC08091140180FD10C0982F907F69F036
:103B1000F8018583903F31F0982F907F905F8F70F0
:103B2000892B8583C8010E94EA1586E0F801AFE081
:103B3000B1E001900D928A95E1F725CFC8010E946E
:103B40003B128111A6CF80911401816080931401F2
:103B5000C8010E94EA1517CFEE2009F4A7CFC801CB
:103B60000E943B12F82E882309F4A0CF86E0F801CA
:103B7000AFE0B1E001900D928A95E1F780910F01DD
:103B8000909110010E942D120E94131CFCCE81E026
:103B90008E2513CF1F93CF93DF93CDB7DEB76797F3
:103BA0000FB6F894DEBF0FBECDBF4B8B5C8B6D8B19
:103BB0007E8B8F8B6111109249011A8A2C898E8914
:103BC0009F893B893D872E876F87998B888B86E0FD
:103BD000FE013D96DE01179601900D928A95E1F760
:103BE000CE0107960E94691C882389F016E0809117
:103BF00046019091150189134FC067960FB6F8944E
:103C0000DEBF0FBECDBFDF91CF911F91089586E03B
:103C1000FE013796DE01119601900D928A95E1F72B
:103C20004A855B854115510509F37F816885862F9B
:103C300087238F3FD9F22091150130E0C901019609
:103C400087709927E0914601E817190671F40E94E0
:103C5000DF15109215011092460186E0EFE0F1E0C9
:103C6000DF011D928A95E9F7C1CF79836A835D836D
:103C70004C8396E0929FD001939FB00D1124AA5ED1
:103C8000BE4FFE01319601900D929A95E1F7809317
:103C900015010E94150AAACF819FC00111248A5ED6
:103CA0009E4F0E94691C882309F4A7CF809146018A
:103CB00090E00196877099278093460198CF789479
:103CC0001F921FB61F9211248F939F93AF93BF93A0
:103CD0008091E3019091E401A091E501B091E601AA
:103CE0000196A11DB11D8093E3019093E401A0937F
:103CF000E501B093E601BF91AF919F918F911F9025
:103D00001FBE1F901895CDB7DEB72F970FB6F8944A
:103D1000DEBF0FBECDBF0E94AB05909374018093B0
:103D2000730184B7806884BF84B7806884BF88EDDE
:103D300097E09093E7008093E60085B7886085BFA1
:103D40008BB780688BBF8BE48093B1028093E602CF
:103D50008093BD028AE58093B0028093E502809350
:103D6000BC028B9A80E0815009F087C28B987894CE
:103D70008BE083BF8AEF8CBF82E089BF0E946B1209
:103D8000811102C00E94A2110CEA10E0A1EBEA2E00
:103D9000A0E0FA2EF80181918F018F3F11F00E946F
:103DA000DA07E016F106B1F701EB10E0F0ECEF2EC8
:103DB000F0E0FF2ED8018D918D018F3F11F00E9410
:103DC000DA07E016F106B1F7109253011092520192
:103DD00010926A01109269011092550110925401DB
:103DE00010926C0110926B011092570110925601C3
:103DF00010926E0110926D011092590110925801AB
:103E00001092700110926F0110925B0110925A0192
:103E100010927201109271010E94D415811102C09A
:103E20000E94771482E090E00E94A12480935E01BA
:103E30000E94841290935101809350010E94E114DA
:103E4000EFE3FCE93197F1F700C000000E94E114B4
:103E50008091690180FF08C06FEF7FEF90E080E004
:103E60000E94D2240E94890583E090E00E94A12450
:103E70000E94D50A899A919880915C01811133C082
:103E80000E94D415811104C00E9477140E94561418
:103E900088E090E00E94A9246093DC017093DD012A
:103EA0008093DE019093DF016E7F71F40E945614BF
:103EB00088E090E00E94A9246093DC017093DD010A
:103EC0008093DE019093DF010E94F5051092DA01E4
:103ED0008091DC0180FF04C060E086950E94E013C1
:103EE00081E080935C0180E690E09093D60180931E
:103EF000D501FFEF20E732E0F15020403040E1F7FC
:103F000000C00000E4E0EE2EE1E0FE2E8091CB0246
:103F10001091E201882309F4B8C11092CB020E94EB
:103F2000AB0590937401809373011123E9F0109213
:103F3000E2010E94DF150E94E3050E944B0B1092E4
:103F4000E1018091DB01882349F08091DC018160EF
:103F50008093DC0160E086950E94E0130E9492123B
:103F60008091E201811193C10E94510B80919902CD
:103F7000882309F465C18091B00284FF61C10E9469
:103F8000E114882359F08FB7F8944091E3015091E0
:103F9000E4016091E5017091E6018FBFA9E6B1E00F
:103FA000EFE5F1E010E000E0602F8D919D914191EF
:103FB00051914817590709F490C14827592720E023
:103FC000CC24C394D12C5A01AC20BD20AB2809F4D9
:103FD0007EC129836A839C012C213D2191E0232B02
:103FE00009F490E09B830E94AB058160782F9D834C
:103FF0008C8349815A816B818D810E94CA1D000F7B
:10400000111FF801E15AFE4F80819181C826D926FF
:10401000D182C0828091DA018823D1F18091D901C7
:10402000E091DC01E695E81BE0938401823009F021
:104030006BC1F0E0EE5EFE4FE4910E2F10E094EFC6
:10404000C92E9FE0D92E80918501882361F01092BE
:1040500085010E94AB0590938301809382011092A9
:104060008701109286010E94AB05E0918201F091D8
:1040700083018E1B9F0B8F3F9F4750F4E00FF11F72
:10408000F0938301E093820182E891E0F6010995C3
:1040900086E0ECE7F1E0DE01119601900D928A9541
:1040A000E1F7C0907E0100917F01D09080011091D6
:1040B000810110927E0110927F0110928001109276
:1040C0008101802F8C2909F448C080917A01909158
:1040D0007B010E949C059C0180917601882309F454
:1040E000B3C323333105C8F18F3F19F08F5F80933D
:1040F0007601CC2059F00E945E079FEF1C140CF44F
:1041000091E0899F802D112480937E01002359F036
:104110000E945E079FEF10160CF491E0899F802D9E
:10412000112480937F0130917E013323B1F02091DF
:104130007F01222391F045EB3403C0011124992320
:1041400009F43BC190937E0155EB250390011124A6
:10415000332309F436C130937F01812F8D2909F46F
:1041600048C080917801909179010E949C059C0142
:1041700080917501882309F462C325363105C8F1A1
:104180008F3F19F08F5F80937501DD2059F00E94F9
:104190003C079FEF1D140CF491E0899F802D1124A2
:1041A00080938001112359F00E943C079FEF111664
:1041B0000CF491E0899F802D11248093810130912E
:1041C00080013323B1F020918101222391F045EB4E
:1041D0003403C0011124992309F4F7C0909380019E
:1041E00055EB250390011124332309F4F2C03093D9
:1041F000810180917E0190917F01892B90918001B6
:10420000892B90918101892B11F00E949D06CB8210
:104210000C83DD821E8386E0FE013196ACE7B1E0BF
:1042200001900D928A95E1F70E94E30590915D015E
:10423000891731F00E94E30580935D010E944B0BCA
:104240000E94030D0E94510B80919902882309F46A
:104250005DCE8091E50284FF59CE80918F0280323D
:1042600009F054CEE0916F02E150E33108F036C11D
:10427000F0E0E859FA4D0C945F24A895AFE9BFE04F
:104280001197F1F700C000006ECD112389F00E9454
:10429000960D0E94E114E9E6F1E083E791E02191B7
:1042A0003191232B09F0A4C28E179F07C1F72ECEA0
:1042B00080917301909174010E949C05069708F407
:1042C00053CE81E08093E2010E94960D49CE2F5F8C
:1042D000CC0CDD1C2F3009F076CE0F5F1F4F053060
:1042E000110509F061CE8FEF8F83888719860E94B0
:1042F000AB058160782F9B878A874F8158856985B8
:104300008B850E94CA1D86CE863059F4F0E0E15FAD
:10431000FE4FE4910E2F10E084EEC82E8FE0D82ED1
:1043200092CE893061F4E695F0E0E45FFE4FE491CF
:104330000E2F10E0BFE4CB2EBFE0DB2E84CE8F30FB
:1043400061F4E695F0E0E75FFE4FE4910E2F10E098
:10435000A6EECA2EAEE0DA2E76CE853159F4F0E024
:10436000EA5FFE4FE4910E2F10E0F8E9CF2EFEE059
:10437000DF2E69CE08E210E063EFC62E6DE0D62E88
:10438000883109F460CE833241F4F701059114912C
:10439000EAE8CE2EEFE0DE2E56CE04EF11E07BEB06
:1043A000C72E7DE0D72E843209F44DCE00ED17E004
:1043B00054EFC52E55E0D52E46CE81E080937E0188
:1043C000C3CE81E080937F01C8CE81E080938001DD
:1043D00007CF81E0809381010CCF1092700289E0B9
:1043E0008093710227C080917002823009F41AC252
:1043F000833019F1813009F071C08FB7F8942091A2
:10440000E3013091E4014091E5015091E6012C87F0
:104410003D874E875F878FBF6C857D858E859F85A5
:104420000E946524609371027093720280937302FC
:10443000909374020FE612E0BAC1809169019091E5
:104440006A019827892798279093720280937102B6
:1044500080916B0190916C01982789279827909300
:1044600074028093730280916D0190916E01982780
:1044700089279827909376028093750280916F0127
:1044800090917001982789279827909378028093BC
:10449000770280917101909172019827892798275E
:1044A00090937A0280937902C5CF80917002823016
:1044B000A9F48091710290917202A0917302B0915F
:1044C00074028C879D87AE87BF87BC01CD010E9497
:1044D000652486E290E00E94B524ACCF8FEF8093F4
:1044E0006F02A8CF409172026091710280917002B8
:1044F0000E94CB1198278927982790937402809364
:10450000730298CFC0907302D0907402DC24CD2443
:10451000DC2480917002009171029EE1099F80016C
:104520001124A6E98A9F000D111D112480917202A9
:1045300090E0880F991F080F191F6D2DC8018796ED
:104540000E94B5246C2DC8018896C5CF0E943311F6
:1045500071CF80917002823809F43FC008F580382D
:1045600051F1813809F066CF60E0809171020E94BC
:10457000E013909171028091DC01911126C08E7F31
:104580008093DC011092DA01BFEFE0E7F2E0B15076
:10459000E040F040E1F700C000000E94610D4ACF0A
:1045A000833809F047CF20E04091DF01609172022B
:1045B0008091710207C020E0409171026091DE019C
:1045C0008091DD010E94BC1235CF81608093DC01B7
:1045D00060E086950E94E0132DCF80917102809358
:1045E000E00128CF809170028238E9F058F48038D9
:1045F000A9F0813809F01ECF8091DC0180FF11C045
:104600008695EECE833809F015CF8091DD01809339
:1046100071028091DE01809372020CCF8091DF01E4
:10462000DFCE80E0DDCE8091E001DACE2091DC01AA
:104630003091DD014091DE015091DF012C873D87F3
:104640004E875F87CA01B9010E94A812F3CE80E1AC
:1046500080937002EFCE81E08093700281E8C0CE3B
:1046600000917002109171021027012710273FE678
:10467000A32E32E0B32EC0907202D12CA601415974
:104680005D4F6A01C80181589D4FAC14BD0409F407
:10469000D1CE013851E0150758F40E94A124D5016C
:1046A00014968C930F5F1F4FFFEFAF1ABF0AEACF2C
:1046B000F5011482F7CF009170021091710210275A
:1046C000012710272FE6A22E22E0B22EC090720200
:1046D000C00ED12ED11CC80181589D4F0C151D054F
:1046E00009F4A8CE013821E0120728F4D501149668
:1046F0006C910E94B524BFEFAB1ABB0A0F5F1F4F2E
:10470000EACF0E94231196CE84E0A2CF00917002DE
:10471000109171021027012710279FE6C92E92E001
:10472000D92EA0907202B12CF501E159FD4F5F0125
:10473000C8018796AC14BD0409F47CCE0835F2E0BC
:104740001F0758F40E94A124D60114968C930F5F82
:104750001F4FFFEFCF1ADF0AEBCFF6011482F7CF1E
:1047600000917002109171021027012710278FE627
:10477000A82E82E0B82EC0907202C00ED12ED11C9D
:10478000C8018796C016D10609F454CE083522E038
:10479000120728F4D50114966C910E94B524BFEF3E
:1047A000AB1ABB0A0F5F1F4FEBCF0E94510B8091DA
:1047B000BC0284FFFACF4CEB52E068E0C8010E94D3
:1047C000A30C085F1F4FE2E00F381E0781F78091AE
:1047D000BC0284FF0AC04CEB52E060E090E080E055
:1047E0000E94A30C10928F0291CB0E94510BEFCF2D
:1047F000F89421B3939A822F8C6081BB92B33CE0F2
:10480000932792BBFFE748E351E0F150404050400E
:10481000E1F700C0000082B3832782BB21BB9398DD
:10482000789474CB86E290E00E94A12410927102E9
:10483000109272021092730280937402FBCD2D329B
:10484000314008F09FCCD5CC2D32314008F04ECC11
:1048500084CC87FB082E062687FD819567FD619530
:104860000E947B240EF4919507FC81950895AA1B64
:10487000BB1B51E107C0AA1FBB1FA617B70710F04B
:10488000A61BB70B881F991F5A95A9F7809590957D
:10489000BC01CD01089597FB072E16F4009407D0B4
:1048A00077FD09D00E94372407FC05D03EF490958F
:1048B00081959F4F0895709561957F4F0895EE0FF4
:1048C000FF1F0590F491E02D099469279627692729
:1048D00078278727782708950E941D25332312F40F
:1048E0008A1B9B0B0C9476240E941D25B7FF08950C
:1048F000821B930B0895991B79E004C0991F9617AA
:1049000008F0961B881F7A95C9F780950895FC01D9
:104910004150504030F001900616D1F73197CF0149
:104920000895882799270895FB01DC0104C08D9123
:104930000190801921F441505040C8F7881B990B11
:104940000895E199FECF9FBB8EBBE09A99278DB366
:104950000895A6E1B0E044E050E00C94DA24A8E128
:10496000B0E042E050E00C94DA24262FE199FECF2B
:104970009FBB8EBBE09A01970DB2021631F02DBBA2
:104980000FB6F894E29AE19A0FBE08950396272F86
:104990000E94B6240E94B524252F0E94B624242FFD
:1049A0000C94B6240196272F0E94B6240C94B524AB
:1049B000DC01CB01FC01E199FECF06C0FFBBEEBBE1
:1049C000E09A31960DB20D9241505040B8F70895DB
:1049D0000E941D25A59F900DB49F900DA49F800D52
:1049E000911D11240895B7FF0C94E8240E94E82437
:1049F000821B930B0895A1E21A2EAA1BBB1BFD017B
:104A00000DC0AA1FBB1FEE1FFF1FA217B307E407AD
:104A1000F50720F0A21BB30BE40BF50B661F771F05
:104A2000881F991F1A9469F76095709580959095E5
:104A30009B01AC01BD01CF010895A29FB001B39FBE
:104A4000C001A39F700D811D1124911DB29F700D97
:104A5000811D1124911D0895F894FFCFF118F818C5
:104A6000FD18021907190C19111916191B1920190B
:104A7000251928192D1930193319361939193C19E6
:104A80003F19D717DD17E117EF17F317F717FB17C4
:104A9000011809180D1811181518211825182918AA
:104AA0002D18331851183B18EB1719181D18051835
:104AB000371847185A18601871197119E919E91946
:104AC0004A1A641AA819A8196F1ADE1AEF1AEF1AEF
:104AD000ED21F321552272228222A622A922F2225E
:104AE00016236E226E2227232B2330235B23812360
:064AF00084238623B0239D
:104AF6008605320DCD0CFF0CFB0C01191A1B1C1D73
:104B06001E1F202122010201FF5A00000000E200C0
:104B1600E900EA00B500B600B700CD008301CC007D
:104B26008A0192019401210223022402250226020F
:104B360027022A02B300B4006F00700062916190F0
:104B46006092639364940506363534333231300708
:104B56000001020202020606060909090909090FEF
:104B66000F0F0F0F0F1515151819191919191919EE
:064B7600191919232400A7
:00000001FF
